:100000000C9446000C9465000C9465000C946500FB
:100010000C9465000C9465000C9465000C946500CC
:100020000C9465000C9465000C9465000C946500BC
:100030000C9465000C941E020C9465000C946500F1
:100040000C9465000C9465000C9465000C9465009C
:100050000C9465000C9465000C9465000C9465008C
:100060000C9465000C9465000C9465000C9465007C
:100070000C9465000C9465000C9465000C9465006C
:100080000C9465000C9465000C94650011241FBE4F
:10009000CFEFD0E4DEBFCDBF11E0A0E0B1E0E8E9F2
:1000A000FBE100E00BBF02C007900D92AE33B10739
:1000B000D9F721E0AEE3B1E001C01D92AA39B20741
:1000C000E1F70E94060B0C94CA0D0C940000CF932C
:1000D000DF9300D01F92CDB7DEB789836A834B834D
:1000E0008B81882371F08A81282F30E081E090E0B5
:1000F00002C0880F991F2A95E2F7982F8981892BD2
:100100000EC08A81282F30E081E090E002C0880F85
:10011000991F2A95E2F7982F9095898189230F904E
:100120000F900F90DF91CF910895CF93DF9300D080
:10013000CDB7DEB789836A838A81282F30E081E0DA
:1001400090E002C0880F991F2A95E2F7982F8981C5
:1001500089230F900F90DF91CF9108950F931F93F4
:10016000CF93DF93CDB7DEB708E210E040E064E064
:100170008FEF0E946700F8018083000086E290E024
:10018000FC018081809560E00E949500882311F039
:1001900081E3D3C086E290E0FC018081809561E03C
:1001A0000E949500882311F084E3C7C086E290E0A6
:1001B000FC018081809562E00E949500882311F007
:1001C00087E3BBC086E290E0FC018081809563E01C
:1001D0000E949500882311F08AE2AFC008E210E087
:1001E00040E065E08FEF0E946700F8018083000027
:1001F00086E290E0FC018081809560E00E9495009D
:10020000882311F082E399C086E290E0FC018081AE
:10021000809561E00E949500882311F085E38DC0F0
:1002200086E290E0FC018081809562E00E9495006A
:10023000882311F088E381C086E290E0FC01808190
:10024000809563E00E949500882311F080E375C0DB
:1002500008E210E040E066E08FEF0E946700F801DE
:100260008083000086E290E0FC018081809560E060
:100270000E949500882311F083E35FC086E290E03E
:10028000FC018081809561E00E949500882311F037
:1002900086E353C086E290E0FC018081809562E0B5
:1002A0000E949500882311F089E347C086E290E020
:1002B000FC018081809563E00E949500882311F005
:1002C00083E23BC008E210E040E067E08FEF0E946D
:1002D0006700F8018083000086E290E0FC018081E5
:1002E000809560E00E949500882311F081E425C08C
:1002F00086E290E0FC018081809561E00E9495009B
:10030000882311F082E419C086E290E0FC0180812C
:10031000809562E00E949500882311F083E40DC06F
:1003200086E290E0FC018081809563E00E94950068
:10033000882311F084E401C080E0DF91CF911F9108
:100340000F910895CF93DF9300D000D0CDB7DEB7E3
:1003500069837A838B839C8389819A81AB81BC81F9
:100360008093000190930101A0930201B0930301D7
:100370008091000190910101A0910201B0910301CF
:1003800080933F0190934001A0934101B0934201BB
:1003900000000F900F900F900F90DF91CF91089574
:1003A000CF93DF93CDB7DEB781E890E02BE0FC017F
:1003B000208388E890E02DE730E0FC013183208342
:1003C0008FE690E022E0FC01208384E890E0FC01CD
:1003D000118210828091000190910101A09102018F
:1003E000B091030180933F0190934001A09341019C
:1003F000B09342018FE590E02FE530E0F9012081D4
:100400002068FC0120830000DF91CF910895CF93F5
:10041000DF93CDB7DEB781E890E0FC0110820000E9
:10042000DF91CF910895CF93DF93CDB7DEB781E011
:1004300080933E010000DF91CF9108951F920F92AB
:1004400000905F000F92112400905B000F922F9399
:100450003F934F935F936F937F938F939F93AF934C
:10046000BF93EF93FF93CF93DF93CDB7DEB7809128
:100470003F0190914001A0914101B091420101974B
:10048000A109B10980933F0190934001A0934101DC
:10049000B093420180913F0190914001A0914101B0
:1004A000B0914201892B8A2B8B2B91F40E9413026D
:1004B0008091000190910101A0910201B09103018E
:1004C00080933F0190934001A0934101B09342017A
:1004D0000000DF91CF91FF91EF91BF91AF919F917C
:1004E0008F917F916F915F914F913F912F910F90DD
:1004F00000925B000F9000925F000F901F90189584
:10050000CF93DF93CDB7DEB72C970FB6F894DEBF4D
:100510000FBECDBF6D837E838F83988729873A87EF
:100520004B875C878D819E81AF81B88529853A850F
:100530004B855C85BC01CD010E94F90CDC01CB012F
:1005400089839A83AB83BC8389819A81AB81BC8187
:10055000892B8A2B8B2B29F489859A85AB85BC85C1
:1005600011C089859A85AB85BC858D839E83AF83B9
:10057000B88789819A81AB81BC8189879A87AB874B
:10058000BC87D0CFBC01CD012C960FB6F894DEBF4E
:100590000FBECDBFDF91CF910895CF93DF9300D0F1
:1005A0001F92CDB7DEB789837B836A8389818A30C6
:1005B00031F48A819B81BC018DE00E94CD0280ECE8
:1005C00090E0FC018081882F90E080729927892B30
:1005D000B1F386EC90E02981FC01208380E090E07B
:1005E0000F900F900F90DF91CF910895CF93DF93ED
:1005F00000D01F92CDB7DEB79B838A8380E290E064
:10060000FC0180818095898380918E0190918F017A
:100610008230910509F49EC08330910528F400973B
:1006200079F0019771F1C6C18430910509F42AC1AE
:100630008430910508F4E1C0059709F476C1BAC188
:1006400081E090E090938F0180938E0188E290E0AA
:1006500020E8FC0120838BE290E020911701222FFB
:1006600030E02E5E3E4FF901408120911801222F8B
:1006700030E02E5E3E4FF90120812423FC012083CF
:1006800099C18981813009F588E290E020E8FC0178
:1006900020838BE290E020911701222F30E02E5E24
:1006A0003E4FF901408120911801222F30E02E5E4B
:1006B0003E4FF90120812423FC01208382E090E059
:1006C00090938F0180938E0175C18981823009F5E5
:1006D00088E290E020E8FC0120838BE290E020910A
:1006E0001701222F30E02E5E3E4FF901408120910C
:1006F0001801222F30E02E5E3E4FF9012081242385
:10070000FC01208384E090E090938F0180938E0120
:1007100051C188E290E020E8FC0120838BE290E068
:1007200020911701222F30E02E5E3E4FF9014081CB
:1007300020911801222F30E02E5E3E4FF9012081DA
:100740002423FC01208381E090E090938F0180932B
:100750008E0130C18BE290E020911701222F30E012
:100760002E5E3E4FF901408120911801222F30E08A
:100770002E5E3E4FF90120812423FC01208388E274
:1007800090E020E8FC01208380911701882371F11B
:100790008981813059F58BE290E020911701222F59
:1007A00030E02E5E3E4FF901408120911801222F4A
:1007B00030E02E5E3E4FF90120812423FC0120838E
:1007C00088E290E020E8FC012083809117018150AD
:1007D000809317018091180181508093180183E064
:1007E00090E090938F0180938E01E4C083E090E0CD
:1007F00090938F0180938E01DDC08981813009F54E
:100800008BE290E020911701222F30E02E5E3E4FC8
:10081000F901408120911801222F30E02E5E3E4FD9
:10082000F90120812423FC01208388E290E020E864
:10083000FC01208383E090E090938F0180938E01F0
:10084000B9C08BE290E020911701222F30E02E5E9C
:100850003E4FF901408120911801222F30E02E5E99
:100860003E4FF90120812423FC01208388E290E09F
:1008700020E8FC01208381E090E090938F01809339
:100880008E0198C08BE290E020911701222F30E07A
:100890002E5E3E4FF901408120911801222F30E059
:1008A0002E5E3E4FF90120812423FC01208388E243
:1008B00090E020E8FC01208380911801843070F5DD
:1008C0008981823059F58BE290E020911701222F27
:1008D00030E02E5E3E4FF901408120911801222F19
:1008E00030E02E5E3E4FF90120812423FC0120835D
:1008F00088E290E020E8FC012083809117018F5F5F
:1009000080931701809118018F5F8093180185E013
:1009100090E090938F0180938E014CC085E090E031
:1009200090938F0180938E0145C08981823009F5B3
:100930008BE290E020911701222F30E02E5E3E4F97
:10094000F901408120911801222F30E02E5E3E4FA8
:10095000F90120812423FC01208388E290E020E833
:10096000FC01208385E090E090938F0180938E01BD
:1009700021C08BE290E020911701222F30E02E5E03
:100980003E4FF901408120911801222F30E02E5E68
:100990003E4FF90120812423FC01208388E290E06E
:1009A00020E8FC01208381E090E090938F01809308
:1009B0008E0100008A819B810F900F900F90DF9134
:1009C000CF910895CF93DF9300D0CDB7DEB79A8350
:1009D000898380919201909193018430910509F46B
:1009E0009CC08530910528F4009759F0039781F059
:1009F00023C28530910509F415C1069709F497C102
:100A00001BC283E090E0909393018093920114C203
:100A10008BE290E020914501222F30E02F5D3E4F88
:100A2000F9012081FC01208388E290E020912601D9
:100A3000222F30E0275E3E4FF9012081FC01208308
:100A400080914301909144018C32914084F483E081
:100A500090E0909393018093920180914301909153
:100A6000440101969093440180934301E5C1809134
:100A70004501843010F5809126018823F1F0109211
:100A800044011092430188E290E0FC0110828BE265
:100A900090E02FEFFC012083809145018F5F8093D0
:100AA00045018091260181508093260183E090E0EA
:100AB0009093930180939201BFC18091450184304E
:100AC000A1F488E290E0FC0110828BE290E02FEF2D
:100AD000FC012083109244011092430184E090E0D5
:100AE0009093930180939201A7C18091260188235E
:100AF000A1F488E290E0FC0110828BE290E02FEFFD
:100B0000FC012083109244011092430186E090E0A2
:100B100090939301809392018FC18BE290E020919A
:100B20004501222F30E02F5D3E4FF9012081FC016D
:100B3000208388E290E020912601222F30E0275E7A
:100B40003E4FF9012081FC01208380914301909167
:100B500044018C32914084F484E090E090939301BE
:100B6000809392018091430190914401019690936A
:100B700044018093430160C180912601882311F1D3
:100B8000809145018823F1F01092440110924301B5
:100B900088E290E0FC0110828BE290E02FEFFC01F4
:100BA00020838091450181508093450180912601E9
:100BB00081508093260184E090E09093930180938C
:100BC00092013AC1809126018823A1F488E290E045
:100BD000FC0110828BE290E02FEFFC012083109249
:100BE00044011092430185E090E09093930180933B
:100BF000920122C1809145018823A1F488E290E00E
:100C0000FC0110828BE290E02FEFFC012083109218
:100C100044011092430183E090E09093930180930C
:100C200092010AC18BE290E020914501222F30E031
:100C30002F5D3E4FF9012081FC01208388E290E086
:100C400020912601222F30E0275E3E4FF9012081BE
:100C5000FC01208380914301909144018C329140AA
:100C600084F485E090E090939301809392018091C9
:100C70004301909144010196909344018093430174
:100C8000DBC080914501882311F1809126018730D6
:100C9000F0F4109244011092430188E290E0FC01CC
:100CA00010828BE290E02FEFFC01208380914501C0
:100CB000815080934501809126018F5F80932601AA
:100CC00085E090E09093930180939201B5C080916C
:100CD00045018823A1F488E290E0FC0110828BE2B8
:100CE00090E02FEFFC012083109244011092430109
:100CF00086E090E090939301809392019DC0809153
:100D000026018730A1F488E290E0FC0110828BE29A
:100D100090E02FEFFC0120831092440110924301D8
:100D200084E090E0909393018093920185C08BE2E0
:100D300090E020914501222F30E02F5D3E4FF901D8
:100D40002081FC01208388E290E020912601222F5F
:100D500030E0275E3E4FF9012081FC012083809125
:100D60004301909144018C32914084F486E090E0FC
:100D7000909393018093920180914301909144015B
:100D80000196909344018093430156C080912601BF
:100D9000873010F5809145018430F0F410924401C1
:100DA0001092430188E290E0FC0110828BE290E017
:100DB0002FEFFC012083809145018F5F80934501D7
:100DC000809126018F5F8093260186E090E09093CA
:100DD00093018093920130C0809145018430A1F449
:100DE00088E290E0FC0110828BE290E02FEFFC01A2
:100DF0002083109244011092430185E090E090938B
:100E000093018093920118C0809126018730A1F44C
:100E100088E290E0FC0110828BE290E02FEFFC0171
:100E20002083109244011092430183E090E090935C
:100E3000930180939201000089819A810F900F9015
:100E4000DF91CF910895CF93DF9300D0CDB7DEB778
:100E50009A8389838091900190919101009719F074
:100E6000019741F07BC081E090E0909391018093E5
:100E7000900174C080911701282F30E080914501C6
:100E8000882F90E001962817390789F48091260170
:100E9000813069F486E090E0909393018093920111
:100EA00081E090E0909391018093900157C08091F0
:100EB0001701282F30E080914501882F90E001969E
:100EC0002817390789F480912601813069F486E07A
:100ED00090E0909393018093920181E090E0909351
:100EE0009101809390013AC080911801282F30E041
:100EF00080914501882F90E001962817390789F4E1
:100F000080912601813069F485E090E0909393010F
:100F10008093920181E090E0909391018093900101
:100F20001DC080911801282F30E080914501882F45
:100F300090E001962817390789F4809126018130C5
:100F400069F485E090E0909393018093920181E0B1
:100F500090E09093910180939001000000000F9029
:100F60000F90DF91CF910895CF93DF9300D000D001
:100F7000CDB7DEB79C838B830E947A0D23E030E0EF
:100F8000B9010E94E50C01969A83898380918A01B8
:100F900090918B018230910509F452C18330910503
:100FA00028F4009759F0019751F15CC28330910504
:100FB00009F4CFC1049709F491C054C281E090E0D4
:100FC00090938B0180938A0188E290E021E0FC01FC
:100FD00020838BE290E020912C01222F30E0295DCC
:100FE0003E4FF901408120912D01222F30E0295DF3
:100FF0003E4FF90120812423FC01208333C28981E3
:101000009A81019709F58BE290E020912C01222F23
:1010100030E0295D3E4FF901408120912D01222FC2
:1010200030E0295D3E4FF90120812423FC0120831B
:1010300088E290E021E0FC01208382E090E0909340
:101040008B0180938A010EC289819A81029709F5EA
:101050008BE290E020912C01222F30E0295D3E4F61
:10106000F901408120912D01222F30E0295D3E4F72
:10107000F90120812423FC01208388E290E021E013
:10108000FC01208383E090E090938B0180938A01A0
:10109000E9C189819A81039709F58BE290E020915B
:1010A0002C01222F30E0295D3E4FF9014081209133
:1010B0002D01222F30E0295D3E4FF90120812423AC
:1010C000FC01208388E290E021E0FC01208384E0A1
:1010D00090E090938B0180938A01C4C18BE290E0F1
:1010E00020912C01222F30E0295D3E4FF9014081F3
:1010F00020912D01222F30E0295D3E4FF901208102
:101100002423FC01208388E290E021E0FC0120837D
:1011100080914601909147018C32914084F484E0A3
:1011200090E090938B0180938A0180914601909189
:1011300047010196909347018093460193C1909196
:101140002C0180914501891728F58BE290E02091D0
:101150002C01222F30E0295D3E4FF9014081209182
:101160002D01222F30E0295D3E4FF90120812423FB
:10117000FC01208388E290E021E0FC0120831092B2
:1011800047011092460182E090E090938B0180939A
:101190008A0168C190912C0180914501981728F52A
:1011A0008BE290E020912C01222F30E0295D3E4F10
:1011B000F901408120912D01222F30E0295D3E4F21
:1011C000F90120812423FC01208388E290E021E0C2
:1011D000FC012083109247011092460183E090E0C9
:1011E00090938B0180938A013DC190912C01809155
:1011F0004501981729F58BE290E020912C01222FD0
:1012000030E0295D3E4FF901408120912D01222FD0
:1012100030E0295D3E4FF90120812423FC01208329
:1012200088E290E021E0FC012083109247011092B7
:10123000460181E090E090938B0180938A0112C176
:101240008BE290E020912C01222F30E0295D3E4F6F
:10125000F901408120912D01222F30E0295D3E4F80
:10126000F90120812423FC01208388E290E021E021
:10127000FC01208380914601909147018C3291407E
:1012800084F482E090E090938B0180938A018091B6
:101290004601909147010196909347018093460142
:1012A000E1C080912C01882379F18BE290E02091BC
:1012B0002C01222F30E0295D3E4FF9014081209121
:1012C0002D01222F30E0295D3E4FF901208124239A
:1012D000FC01208388E290E021E0FC012083109251
:1012E00047011092460180912C01815080932C017E
:1012F00080912D01815080932D0181E090E09093A9
:101300008B0180938A01AEC08BE290E020912C018A
:10131000222F30E0295D3E4FF901408120912D01BF
:10132000222F30E0295D3E4FF90120812423FC016A
:10133000208388E290E021E0FC01208310924701A5
:101340001092460181E090E090938B0180938A0196
:1013500089C08BE290E020912C01222F30E0295DA2
:101360003E4FF901408120912D01222F30E0295D6F
:101370003E4FF90120812423FC01208388E290E084
:1013800021E0FC01208380914601909147018C323D
:10139000914084F483E090E090938B0180938A01E4
:1013A0008091460190914701019690934701809367
:1013B000460158C080912D01843078F58BE290E091
:1013C00020912C01222F30E0295D3E4FF901408110
:1013D00020912D01222F30E0295D3E4FF90120811F
:1013E0002423FC01208388E290E021E0FC0120839B
:1013F000109247011092460180912C018F5F8093DB
:101400002C0180912D018F5F80932D0181E090E070
:1014100090938B0180938A0125C08BE290E020910C
:101420002C01222F30E0295D3E4FF90140812091AF
:101430002D01222F30E0295D3E4FF9012081242328
:10144000FC01208388E290E021E0FC0120831092DF
:1014500047011092460181E090E090938B018093C8
:101460008A0100008B819C810F900F900F900F904C
:10147000DF91CF910895CF93DF9300D01F92CDB726
:10148000DEB79B838A8380E290E0FC0180818095B7
:1014900089838091940190919501009719F00197AB
:1014A00041F01BC081E090E09093950180939401FE
:1014B00014C08981843089F410928B0110928A01C2
:1014C00010928F0110928E0110929301109292014E
:1014D000109295011092940100008A819B810F90D7
:1014E0000F900F90DF91CF910895CF93DF9300D0AD
:1014F000CDB7DEB79A838983809190019091910155
:10150000009719F0019741F07BC081E090E0909343
:1015100091018093900174C080912C01282F30E0BC
:1015200080914501882F90E001962817390789F4AA
:1015300080912601873069F483E090E090939301D5
:101540008093920181E090E09093910180939001CB
:1015500057C080912C01282F30E080914501882FC1
:1015600090E001962817390789F480912601873089
:1015700069F483E090E0909393018093920181E07D
:1015800090E090939101809390013AC080912D0159
:10159000282F30E080914501882F90E00196281790
:1015A000390789F480912601873069F484E090E05E
:1015B000909393018093920181E090E09093910148
:1015C000809390011DC080912D01282F30E08091E3
:1015D0004501882F90E001962817390789F48091FA
:1015E0002601873069F484E090E090939301809322
:1015F000920181E090E0909391018093900100002E
:1016000000000F900F90DF91CF9108950F931F93DB
:10161000CF93DF93CDB7DEB761970FB6F894DEBFF7
:101620000FBECDBF80E090E00E94D20CDC01CB0168
:101630000E947E0D81E290E0FC01108282E290E047
:101640002FEFFC01208387E290E02FEFFC01208345
:1016500088E290E0FC0110828AE290E02FEFFC012A
:1016600020838BE290E0FC0110828CE0E2E3F1E069
:10167000DE01169601900D928A95E1F786E090E0E2
:101680009C838B838FEF8D831092480181E090E0E3
:10169000A0E0B0E08093490190934A01A0934B01F0
:1016A000B0934C018091490190914A01A0914B0166
:1016B000B0914C0180934D0190934E01A0934F0146
:1016C000B093500182EE94E09093520180935101C7
:1016D0001092530181E090E0A0E0B0E080935401CB
:1016E00090935501A0935601B093570180915401F6
:1016F00090915501A0915601B091570180935801E6
:1017000090935901A0935A01B0935B0183E297E053
:1017100090935D0180935C0110925E0182E090E005
:10172000A0E0B0E080935F0190936001A09361011D
:10173000B093620180915F0190916001A09161017D
:10174000B09162018093630190936401A09365015D
:10175000B093660186EF92E09093680180936701F1
:101760001092690182E090E0A0E0B0E080936A010D
:1017700090936B01A0936C01B0936D0180916A010D
:1017800090916B01A0916C01B0916D0180936E01FD
:1017900090936F01A0937001B093710184EB97E077
:1017A00090937301809372011092740182E090E033
:1017B000A0E0B0E08093750190937601A09377014B
:1017C000B09378018091750190917601A091770195
:1017D000B09178018093790190937A01A0937B0175
:1017E000B0937C018BE39AE090937E0180937D011E
:1017F00010927F0182E090E0A0E0B0E08093800151
:1018000090938101A0938201B0938301809175012F
:1018100090917601A0917701B09178018093840135
:1018200090938501A0938601B093870185E79AE0A4
:10183000909389018093880161E070E080E090E0FE
:101840000E94A2010E94D0011A8219829BC0898144
:101850009A81880F991F9E012F5F3F4F820F931F20
:101860000596FC0180819181FC01258136814781AB
:10187000508589819A81880F991FBE016F5F7F4FC4
:10188000860F971F0596FC0180819181FC01818163
:101890009281A381B481281739074A075B0709F0B1
:1018A00045C089819A81880F991F9E012F5F3F4F04
:1018B000820F931F0596FC010081118189819A8115
:1018C000880F991F9E012F5F3F4F820F931F059630
:1018D000FC0180819181FC012185328589819A8179
:1018E000880F991FAE014F5F5F4F840F951F0596BC
:1018F000FC0180819181FC018081082E000C990BF4
:10190000F9010995F801808389819A81880F991FCF
:101910009E012F5F3F4F820F931F0596FC01808130
:101920009181FC01158216821782108689819A8125
:10193000880F991F9E012F5F3F4F820F931F0596BF
:10194000FC012081318189819A81880F991FAE0124
:101950004F5F5F4F840F951F0596FC018081918139
:10196000FC0185819681A781B0850196A11DB11DDD
:10197000F90185839683A783B08789819A8101962F
:101980009A83898329813A818B819C812817390721
:1019900008F45DCF000080913E018823E1F31092AE
:1019A0003E0152CFFC010FB6F89460919601709100
:1019B000970180919801909199010FBE309721F085
:1019C0006083718382839383089597FB072E16F4B7
:1019D000009407D077FD09D00E941B0D07FC05D0AD
:1019E0003EF4909581959F4F0895709561957F4F36
:1019F0000895A1E21A2EAA1BBB1BFD010DC0AA1F50
:101A0000BB1FEE1FFF1FA217B307E407F50720F067
:101A1000A21BB30BE40BF50B661F771F881F991FE2
:101A20001A9469F760957095809590959B01AC012B
:101A3000BD01CF010895AA1BBB1B51E107C0AA1F1E
:101A4000BB1FA617B70710F0A61BB70B881F991F5F
:101A50005A95A9F780959095BC01CD0108958F9274
:101A60009F92AF92BF92CF92DF92EF92FF92CF936D
:101A7000DF93EC01688179818A819B816115710511
:101A80008105910521F464E279ED8BE597E02DE184
:101A900033EF41E050E00E94890D49015A019B015A
:101AA000AC01A7EAB1E40E94A80D6B017C01ACEE89
:101AB000B4EFA50194010E94B60DDC01CB018C0DA1
:101AC0009D1DAE1DBF1DB7FF03C00197A109B04802
:101AD00088839983AA83BB839F77DF91CF91FF90FF
:101AE000EF90DF90CF90BF90AF909F908F90089530
:101AF0000C942F0D8EE291E00C942F0DA0E0B0E03D
:101B000080932E0190932F01A0933001B093310167
:101B10000895052E97FB1EF400940E94A00D57FD1A
:101B200007D00E94F90C07FC03D04EF40C94A00DD2
:101B300050954095309521953F4F4F4F5F4F0895F9
:101B400090958095709561957F4F8F4F9F4F089529
:101B50000E94BB0DA59F900DB49F900DA49F800D7A
:101B6000911D11240895B7FF0C94A80D0E94A80D93
:101B7000821B930B0895A29FB001B39FC001A39F46
:101B8000700D811D1124911DB29F700D811D1124B6
:081B9000911D0895F894FFCFA8
:101B9800010000000000000200000000CD0200006B
:101BA8000000FEFDFBF7EF0203804020100804024E
:101BB80001FEFDFBF7EF07FEFDFBF7EF0203010057
:0E1BC8000000480153015E01690174017F01B4
:00000001FF
