:100000000C9446000C9465000C9465000C946500FB
:100010000C9465000C9465000C9465000C946500CC
:100020000C9465000C9465000C9465000C946500BC
:100030000C9465000C941E020C9465000C946500F1
:100040000C9465000C9465000C9465000C9465009C
:100050000C9465000C9465000C9465000C9465008C
:100060000C9465000C9465000C9465000C9465007C
:100070000C9465000C9465000C9465000C9465006C
:100080000C9465000C9465000C94650011241FBE4F
:10009000CFEFD0E4DEBFCDBF11E0A0E0B1E0E0E6FD
:1000A000F2E100E00BBF02C007900D92AE32B10743
:1000B000D9F721E0AEE2B1E001C01D92AC36B20743
:1000C000E1F70E94B4070C942E090C940000CF9322
:1000D000DF9300D01F92CDB7DEB789836A834B834D
:1000E0008B81882371F08A81282F30E081E090E0B5
:1000F00002C0880F991F2A95E2F7982F8981892BD2
:100100000EC08A81282F30E081E090E002C0880F85
:10011000991F2A95E2F7982F9095898189230F904E
:100120000F900F90DF91CF910895CF93DF9300D080
:10013000CDB7DEB789836A838A81282F30E081E0DA
:1001400090E002C0880F991F2A95E2F7982F8981C5
:1001500089230F900F90DF91CF9108950F931F93F4
:10016000CF93DF93CDB7DEB708E210E040E064E064
:100170008FEF0E946700F8018083000086E290E024
:10018000FC018081809560E00E949500882311F039
:1001900081E3D3C086E290E0FC018081809561E03C
:1001A0000E949500882311F084E3C7C086E290E0A6
:1001B000FC018081809562E00E949500882311F007
:1001C00087E3BBC086E290E0FC018081809563E01C
:1001D0000E949500882311F08AE2AFC008E210E087
:1001E00040E065E08FEF0E946700F8018083000027
:1001F00086E290E0FC018081809560E00E9495009D
:10020000882311F082E399C086E290E0FC018081AE
:10021000809561E00E949500882311F085E38DC0F0
:1002200086E290E0FC018081809562E00E9495006A
:10023000882311F088E381C086E290E0FC01808190
:10024000809563E00E949500882311F080E375C0DB
:1002500008E210E040E066E08FEF0E946700F801DE
:100260008083000086E290E0FC018081809560E060
:100270000E949500882311F083E35FC086E290E03E
:10028000FC018081809561E00E949500882311F037
:1002900086E353C086E290E0FC018081809562E0B5
:1002A0000E949500882311F089E347C086E290E020
:1002B000FC018081809563E00E949500882311F005
:1002C00083E23BC008E210E040E067E08FEF0E946D
:1002D0006700F8018083000086E290E0FC018081E5
:1002E000809560E00E949500882311F081E425C08C
:1002F00086E290E0FC018081809561E00E9495009B
:10030000882311F082E419C086E290E0FC0180812C
:10031000809562E00E949500882311F083E40DC06F
:1003200086E290E0FC018081809563E00E94950068
:10033000882311F084E401C080E0DF91CF911F9108
:100340000F910895CF93DF9300D000D0CDB7DEB7E3
:1003500069837A838B839C8389819A81AB81BC81F9
:100360008093000190930101A0930201B0930301D7
:100370008091000190910101A0910201B0910301CF
:1003800080932F0190933001A0933101B0933201FB
:1003900000000F900F900F900F90DF91CF91089574
:1003A000CF93DF93CDB7DEB781E890E02BE0FC017F
:1003B000208388E890E02DE730E0FC013183208342
:1003C0008FE690E022E0FC01208384E890E0FC01CD
:1003D000118210828091000190910101A09102018F
:1003E000B091030180932F0190933001A0933101CC
:1003F000B09332018FE590E02FE530E0F9012081E4
:100400002068FC0120830000DF91CF910895CF93F5
:10041000DF93CDB7DEB781E890E0FC0110820000E9
:10042000DF91CF910895CF93DF93CDB7DEB781E011
:1004300080932E010000DF91CF9108951F920F92BB
:1004400000905F000F92112400905B000F922F9399
:100450003F934F935F936F937F938F939F93AF934C
:10046000BF93EF93FF93CF93DF93CDB7DEB7809128
:100470002F0190913001A0913101B091320101978B
:10048000A109B10980932F0190933001A09331010C
:10049000B093320180912F0190913001A0913101F0
:1004A000B0913201892B8A2B8B2B91F40E9413027D
:1004B0008091000190910101A0910201B09103018E
:1004C00080932F0190933001A0933101B0933201BA
:1004D0000000DF91CF91FF91EF91BF91AF919F917C
:1004E0008F917F916F915F914F913F912F910F90DD
:1004F00000925B000F9000925F000F901F90189584
:10050000CF93DF93CDB7DEB72C970FB6F894DEBF4D
:100510000FBECDBF6D837E838F83988729873A87EF
:100520004B875C878D819E81AF81B88529853A850F
:100530004B855C85BC01CD010E940C09DC01CB011F
:1005400089839A83AB83BC8389819A81AB81BC8187
:10055000892B8A2B8B2B29F489859A85AB85BC85C1
:1005600011C089859A85AB85BC858D839E83AF83B9
:10057000B88789819A81AB81BC8189879A87AB874B
:10058000BC87D0CFBC01CD012C960FB6F894DEBF4E
:100590000FBECDBFDF91CF910895CF93DF9300D0F1
:1005A0001F92CDB7DEB789837B836A8389818A30C6
:1005B00031F48A819B81BC018DE00E94CD0280ECE8
:1005C00090E0FC018081882F90E080729927892B30
:1005D000B1F386EC90E02981FC01208380E090E07B
:1005E0000F900F900F90DF91CF910895CF93DF93ED
:1005F00000D01F92CDB7DEB79B838A8380E290E064
:10060000FC018081809589838091630190916401D0
:100610008230910509F49EC08330910528F400973B
:1006200079F0019771F1C6C18430910509F42AC1AE
:100630008430910508F4E1C0059709F476C1BAC188
:1006400081E090E0909364018093630188E290E000
:1006500020E8FC0120838BE290E020911701222FFB
:1006600030E02E5E3E4FF901408120911801222F8B
:1006700030E02E5E3E4FF90120812423FC012083CF
:1006800099C18981813009F588E290E020E8FC0178
:1006900020838BE290E020911701222F30E02E5E24
:1006A0003E4FF901408120911801222F30E02E5E4B
:1006B0003E4FF90120812423FC01208382E090E059
:1006C000909364018093630175C18981823009F53B
:1006D00088E290E020E8FC0120838BE290E020910A
:1006E0001701222F30E02E5E3E4FF901408120910C
:1006F0001801222F30E02E5E3E4FF9012081242385
:10070000FC01208384E090E0909364018093630176
:1007100051C188E290E020E8FC0120838BE290E068
:1007200020911701222F30E02E5E3E4FF9014081CB
:1007300020911801222F30E02E5E3E4FF9012081DA
:100740002423FC01208381E090E090936401809356
:10075000630130C18BE290E020911701222F30E03D
:100760002E5E3E4FF901408120911801222F30E08A
:100770002E5E3E4FF90120812423FC01208388E274
:1007800090E020E8FC01208380911701882371F11B
:100790008981813059F58BE290E020911701222F59
:1007A00030E02E5E3E4FF901408120911801222F4A
:1007B00030E02E5E3E4FF90120812423FC0120838E
:1007C00088E290E020E8FC012083809117018150AD
:1007D000809317018091180181508093180183E064
:1007E00090E09093640180936301E4C083E090E023
:1007F0009093640180936301DDC08981813009F5A4
:100800008BE290E020911701222F30E02E5E3E4FC8
:10081000F901408120911801222F30E02E5E3E4FD9
:10082000F90120812423FC01208388E290E020E864
:10083000FC01208383E090E0909364018093630146
:10084000B9C08BE290E020911701222F30E02E5E9C
:100850003E4FF901408120911801222F30E02E5E99
:100860003E4FF90120812423FC01208388E290E09F
:1008700020E8FC01208381E090E090936401809364
:10088000630198C08BE290E020911701222F30E0A5
:100890002E5E3E4FF901408120911801222F30E059
:1008A0002E5E3E4FF90120812423FC01208388E243
:1008B00090E020E8FC01208380911801843070F5DD
:1008C0008981823059F58BE290E020911701222F27
:1008D00030E02E5E3E4FF901408120911801222F19
:1008E00030E02E5E3E4FF90120812423FC0120835D
:1008F00088E290E020E8FC012083809117018F5F5F
:1009000080931701809118018F5F8093180185E013
:1009100090E090936401809363014CC085E090E087
:10092000909364018093630145C08981823009F509
:100930008BE290E020911701222F30E02E5E3E4F97
:10094000F901408120911801222F30E02E5E3E4FA8
:10095000F90120812423FC01208388E290E020E833
:10096000FC01208385E090E0909364018093630113
:1009700021C08BE290E020911701222F30E02E5E03
:100980003E4FF901408120911801222F30E02E5E68
:100990003E4FF90120812423FC01208388E290E06E
:1009A00020E8FC01208381E090E090936401809333
:1009B000630100008A819B810F900F900F90DF915F
:1009C000CF910895CF93DF9300D0CDB7DEB79A8350
:1009D000898380916A0190916B018430910509F4BB
:1009E0009CC08530910528F4009759F0039781F059
:1009F00023C28530910509F415C1069709F497C102
:100A00001BC283E090E090936B0180936A0114C253
:100A10008BE290E020913501222F30E02F5D3E4F98
:100A2000F9012081FC01208388E290E020912601D9
:100A3000222F30E0275E3E4FF9012081FC01208308
:100A400080913301909134018C32914084F483E0A1
:100A500090E090936B0180936A01809133019091B3
:100A6000340101969093340180933301E5C1809164
:100A70003501843010F5809126018823F1F0109221
:100A800034011092330188E290E0FC0110828BE285
:100A900090E02FEFFC012083809135018F5F8093E0
:100AA00035018091260181508093260183E090E0FA
:100AB00090936B0180936A01BFC1809135018430AE
:100AC000A1F488E290E0FC0110828BE290E02FEF2D
:100AD000FC012083109234011092330184E090E0F5
:100AE00090936B0180936A01A7C1809126018823AE
:100AF000A1F488E290E0FC0110828BE290E02FEFFD
:100B0000FC012083109234011092330186E090E0C2
:100B100090936B0180936A018FC18BE290E02091EA
:100B20003501222F30E02F5D3E4FF9012081FC017D
:100B3000208388E290E020912601222F30E0275E7A
:100B40003E4FF9012081FC01208380913301909177
:100B500034018C32914084F484E090E090936B01F6
:100B600080936A01809133019091340101969093B2
:100B700034018093330160C180912601882311F1F3
:100B8000809135018823F1F01092340110923301E5
:100B900088E290E0FC0110828BE290E02FEFFC01F4
:100BA0002083809135018150809335018091260109
:100BB00081508093260184E090E090936B018093B4
:100BC0006A013AC1809126018823A1F488E290E06D
:100BD000FC0110828BE290E02FEFFC012083109249
:100BE00034011092330185E090E090936B01809383
:100BF0006A0122C1809135018823A1F488E290E046
:100C0000FC0110828BE290E02FEFFC012083109218
:100C100034011092330183E090E090936B01809354
:100C20006A010AC18BE290E020913501222F30E069
:100C30002F5D3E4FF9012081FC01208388E290E086
:100C400020912601222F30E0275E3E4FF9012081BE
:100C5000FC01208380913301909134018C329140CA
:100C600084F485E090E090936B0180936A01809119
:100C700033019091340101969093340180933301B4
:100C8000DBC080913501882311F1809126018730E6
:100C9000F0F4109234011092330188E290E0FC01EC
:100CA00010828BE290E02FEFFC01208380913501D0
:100CB000815080933501809126018F5F80932601BA
:100CC00085E090E090936B0180936A01B5C08091BC
:100CD00035018823A1F488E290E0FC0110828BE2C8
:100CE00090E02FEFFC012083109234011092330129
:100CF00086E090E090936B0180936A019DC08091A3
:100D000026018730A1F488E290E0FC0110828BE29A
:100D100090E02FEFFC0120831092340110923301F8
:100D200084E090E090936B0180936A0185C08BE230
:100D300090E020913501222F30E02F5D3E4FF901E8
:100D40002081FC01208388E290E020912601222F5F
:100D500030E0275E3E4FF9012081FC012083809125
:100D60003301909134018C32914084F486E090E01C
:100D700090936B0180936A018091330190913401CB
:100D80000196909334018093330156C080912601DF
:100D9000873010F5809135018430F0F410923401E1
:100DA0001092330188E290E0FC0110828BE290E027
:100DB0002FEFFC012083809135018F5F80933501F7
:100DC000809126018F5F8093260186E090E09093CA
:100DD0006B0180936A0130C0809135018430A1F4A9
:100DE00088E290E0FC0110828BE290E02FEFFC01A2
:100DF0002083109234011092330185E090E09093AB
:100E00006B0180936A0118C0809126018730A1F49C
:100E100088E290E0FC0110828BE290E02FEFFC0171
:100E20002083109234011092330183E090E090937C
:100E30006B0180936A01000089819A810F900F9065
:100E4000DF91CF910895CF93DF9300D0CDB7DEB778
:100E50009A8389838091660190916701009719F0C8
:100E6000019741F07BC081E090E09093670180930F
:100E7000660174C080911701282F30E08091350100
:100E8000882F90E001962817390789F48091260170
:100E9000813069F486E090E090936B0180936A0161
:100EA00081E090E0909367018093660157C0809144
:100EB0001701282F30E080913501882F90E00197AD
:100EC0002817390789F480912601813069F486E07A
:100ED00090E090936B0180936A0181E090E09093A1
:100EE0006701809366013AC080911801282F30E095
:100EF00080913501882F90E001962817390789F4F1
:100F000080912601813069F485E090E090936B0137
:100F100080936A0181E090E090936701809366017D
:100F20001DC080911801282F30E080913501882F55
:100F300090E001962817390789F4809126018130C5
:100F400069F485E090E090936B0180936A0181E001
:100F500090E09093670180936601000000000F907D
:100F60000F90DF91CF9108950F931F93CF93DF934D
:100F7000CDB7DEB72B970FB6F894DEBF0FBECDBF4F
:100F800081E290E0FC01108282E290E02FEFFC0110
:100F9000208387E290E02FEFFC01208388E290E03D
:100FA000FC0110828AE290E02FEFFC0120838BE2AB
:100FB00090E0FC01108286E0E7E2F1E0DE011696A7
:100FC00001900D928A95E1F783E090E09C838B83FA
:100FD0008FEF8D831092360181E090E0A0E0B0E0C9
:100FE0008093370190933801A0933901B0933A016F
:100FF0008091370190913801A0913901B0913A0167
:1010000080933B0190933C01A0933D01B0933E013E
:1010100082EE94E09093400180933F011092410151
:1010200081E090E0A0E0B0E0809342019093430122
:10103000A0934401B09345018091420190914301F6
:10104000A0914401B09145018093460190934701DE
:10105000A0934801B093490183E297E090934B013C
:1010600080934A0110924C0182E090E0A0E0B0E051
:1010700080934D0190934E01A0934F01B093500186
:1010800080914D0190914E01A0914F01B09150017E
:101090008093510190935201A0935301B093540156
:1010A00086EF92E0909356018093550161E070E0E5
:1010B00080E090E00E94A2010E94D0011A82198271
:1010C0009BC089819A81880F991F9E012F5F3F4F96
:1010D000820F931F0596FC0180819181FC0125817F
:1010E00036814781508589819A81880F991FBE0179
:1010F0006F5F7F4F860F971F0596FC01808191815E
:10110000FC0181819281A381B481281739074A07A4
:101110005B0709F045C089819A81880F991F9E015C
:101120002F5F3F4F820F931F0596FC0100811181B5
:1011300089819A81880F991F9E012F5F3F4F820FEF
:10114000931F0596FC0180819181FC0121853285E8
:1011500089819A81880F991FAE014F5F5F4F840F7D
:10116000951F0596FC0180819181FC018081082EEC
:10117000000C990BF9010995F801808389819A8106
:10118000880F991F9E012F5F3F4F820F931F059677
:10119000FC0180819181FC011582168217821086E4
:1011A00089819A81880F991F9E012F5F3F4F820F7F
:1011B000931F0596FC012081318189819A81880FD6
:1011C000991FAE014F5F5F4F840F951F0596FC017D
:1011D00080819181FC0185819681A781B0850196EE
:1011E000A11DB11DF90185839683A783B0878981ED
:1011F0009A8101969A83898329813A818B819C8186
:101200002817390708F45DCF000080912E0188234C
:10121000E1F310922E0152CFA1E21A2EAA1BBB1BA2
:10122000FD010DC0AA1FBB1FEE1FFF1FA217B307B2
:10123000E407F50720F0A21BB30BE40BF50B661FC8
:10124000771F881F991F1A9469F76095709580958C
:1012500090959B01AC01BD01CF010895F894FFCF9B
:10126000010000000000000200000000CD020000AC
:101270000000FEFDFBF7EF0203804020100804028F
:0E12800001FEFDFBF7EF07360141014C0100B6
:00000001FF
